{
  "contractName": "TextStorage",
  "abi": [
    {
      "inputs": [
        {
          "internalType": "uint256",
          "name": "id",
          "type": "uint256"
        },
        {
          "internalType": "string",
          "name": "text",
          "type": "string"
        }
      ],
      "name": "addText",
      "outputs": [],
      "stateMutability": "nonpayable",
      "type": "function"
    },
    {
      "inputs": [
        {
          "internalType": "uint256",
          "name": "id",
          "type": "uint256"
        },
        {
          "internalType": "uint256",
          "name": "index",
          "type": "uint256"
        }
      ],
      "name": "getText",
      "outputs": [
        {
          "internalType": "string",
          "name": "",
          "type": "string"
        }
      ],
      "stateMutability": "view",
      "type": "function",
      "constant": true
    },
    {
      "inputs": [
        {
          "internalType": "uint256",
          "name": "id",
          "type": "uint256"
        }
      ],
      "name": "getTextCount",
      "outputs": [
        {
          "internalType": "uint256",
          "name": "",
          "type": "uint256"
        }
      ],
      "stateMutability": "view",
      "type": "function",
      "constant": true
    }
  ],
  "bytecode": "0x608060405234801561000f575f80fd5b506108e18061001d5f395ff3fe608060405234801561000f575f80fd5b506004361061003f575f3560e01c806350f65ef31461004357806353befa17146100735780638acdc8ca1461008f575b5f80fd5b61005d6004803603810190610058919061028c565b6100bf565b60405161006a9190610354565b60405180910390f35b61008d600480360381019061008891906104a0565b6101d1565b005b6100a960048036038101906100a491906104fa565b61022c565b6040516100b69190610534565b60405180910390f35b60605f808481526020019081526020015f20805490508210610116576040517f08c379a000000000000000000000000000000000000000000000000000000000815260040161010d90610597565b60405180910390fd5b5f808481526020019081526020015f208281548110610138576101376105b5565b5b905f5260205f20015f01805461014d9061060f565b80601f01602080910402602001604051908101604052809291908181526020018280546101799061060f565b80156101c45780601f1061019b576101008083540402835291602001916101c4565b820191905f5260205f20905b8154815290600101906020018083116101a757829003601f168201915b5050505050905092915050565b5f808381526020019081526020015f20604051806020016040528083815250908060018154018082558091505060019003905f5260205f20015f909190919091505f820151815f01908161022591906107dc565b5050505050565b5f805f8381526020019081526020015f20805490509050919050565b5f604051905090565b5f80fd5b5f80fd5b5f819050919050565b61026b81610259565b8114610275575f80fd5b50565b5f8135905061028681610262565b92915050565b5f80604083850312156102a2576102a1610251565b5b5f6102af85828601610278565b92505060206102c085828601610278565b9150509250929050565b5f81519050919050565b5f82825260208201905092915050565b5f5b838110156103015780820151818401526020810190506102e6565b5f8484015250505050565b5f601f19601f8301169050919050565b5f610326826102ca565b61033081856102d4565b93506103408185602086016102e4565b6103498161030c565b840191505092915050565b5f6020820190508181035f83015261036c818461031c565b905092915050565b5f80fd5b5f80fd5b7f4e487b71000000000000000000000000000000000000000000000000000000005f52604160045260245ffd5b6103b28261030c565b810181811067ffffffffffffffff821117156103d1576103d061037c565b5b80604052505050565b5f6103e3610248565b90506103ef82826103a9565b919050565b5f67ffffffffffffffff82111561040e5761040d61037c565b5b6104178261030c565b9050602081019050919050565b828183375f83830152505050565b5f61044461043f846103f4565b6103da565b9050828152602081018484840111156104605761045f610378565b5b61046b848285610424565b509392505050565b5f82601f83011261048757610486610374565b5b8135610497848260208601610432565b91505092915050565b5f80604083850312156104b6576104b5610251565b5b5f6104c385828601610278565b925050602083013567ffffffffffffffff8111156104e4576104e3610255565b5b6104f085828601610473565b9150509250929050565b5f6020828403121561050f5761050e610251565b5b5f61051c84828501610278565b91505092915050565b61052e81610259565b82525050565b5f6020820190506105475f830184610525565b92915050565b7f496e646578206f7574206f6620626f756e6473000000000000000000000000005f82015250565b5f6105816013836102d4565b915061058c8261054d565b602082019050919050565b5f6020820190508181035f8301526105ae81610575565b9050919050565b7f4e487b71000000000000000000000000000000000000000000000000000000005f52603260045260245ffd5b7f4e487b71000000000000000000000000000000000000000000000000000000005f52602260045260245ffd5b5f600282049050600182168061062657607f821691505b602082108103610639576106386105e2565b5b50919050565b5f819050815f5260205f209050919050565b5f6020601f8301049050919050565b5f82821b905092915050565b5f6008830261069b7fffffffffffffffffffffffffffffffffffffffffffffffffffffffffffffffff82610660565b6106a58683610660565b95508019841693508086168417925050509392505050565b5f819050919050565b5f6106e06106db6106d684610259565b6106bd565b610259565b9050919050565b5f819050919050565b6106f9836106c6565b61070d610705826106e7565b84845461066c565b825550505050565b5f90565b610721610715565b61072c8184846106f0565b505050565b5b8181101561074f576107445f82610719565b600181019050610732565b5050565b601f821115610794576107658161063f565b61076e84610651565b8101602085101561077d578190505b61079161078985610651565b830182610731565b50505b505050565b5f82821c905092915050565b5f6107b45f1984600802610799565b1980831691505092915050565b5f6107cc83836107a5565b9150826002028217905092915050565b6107e5826102ca565b67ffffffffffffffff8111156107fe576107fd61037c565b5b610808825461060f565b610813828285610753565b5f60209050601f831160018114610844575f8415610832578287015190505b61083c85826107c1565b8655506108a3565b601f1984166108528661063f565b5f5b8281101561087957848901518255600182019150602085019450602081019050610854565b868310156108965784890151610892601f8916826107a5565b8355505b6001600288020188555050505b50505050505056fea2646970667358221220d9b748cc6956828ca1bca470707001f2d3eb4dbc0aaeef927464c49c67787e5864736f6c63430008150033",
  "immutableReferences": {},
  "source": "// SPDX-License-Identifier: MIT\npragma solidity ^0.8.0;\n\ncontract TextStorage {\n    struct TextEntry {\n        string text;\n    }\n\n    mapping(uint256 => TextEntry[]) private textList;\n\n    function addText(uint256 id, string memory text) public {\n        textList[id].push(TextEntry(text));\n    }\n\n    function getText(uint256 id, uint256 index) public view returns (string memory) {\n        require(index < textList[id].length, \"Index out of bounds\");\n        return textList[id][index].text;\n    }\n\n    function getTextCount(uint256 id) public view returns (uint256) {\n        return textList[id].length;\n    }\n}\n",
  "sourcePath": "/home/zerefco/code/TextStorage/contracts/TextStorage.sol",
  "compiler": {
    "name": "solc",
    "version": "0.8.21+commit.d9974bed.Emscripten.clang"
  },
  "schemaVersion": "3.4.16",
  "updatedAt": "2023-09-15T14:05:05.720Z",
  "networkType": "ethereum",
  "devdoc": {
    "kind": "dev",
    "methods": {},
    "version": 1
  },
  "userdoc": {
    "kind": "user",
    "methods": {},
    "version": 1
  }
}